:020000040800F2
:10000000A0040020D9010008E1010008E301000874
:10001000E5010008E7010008E90100080000000010
:10002000000000000000000000000000EB010008DC
:10003000ED01000800000000EF0100088523000822
:10004000F3010008F3010008F3010008F3010008C0
:10005000F3010008F3010008F3010008F3010008B0
:10006000F3010008F3010008F3010008F3010008A0
:10007000F3010008F3010008F3010008F301000890
:10008000F3010008F3010008F3010008F301000880
:10009000F3010008F3010008F3010008F301000870
:1000A000F3010008F3010008F3010008F301000860
:1000B000F3010008F3010008F3010008691A0008C1
:1000C000F3010008F3010008F3010008F301000840
:1000D000F3010008F3010008F3010008F301000830
:1000E000F3010008E1220008F3010008F301000811
:1000F000F3010008F3010008F3010008F301000810
:10010000F3010008F3010008F3010008F3010008FF
:10011000F3010008F3010008F3010008F3010008EF
:10012000F3010008F3010008F3010008F3010008DF
:10013000F30100080000000000000000F3010008C7
:10014000F3010008F3010008F3010008F3010008BF
:10015000F3010008F3010008F3010008F3010008AF
:10016000F3010008F3010008F3010008F30100089F
:10017000F3010008F3010008F3010008000000008B
:1001800000000000F3010008000000000000000073
:10019000F30100080000000000000000F301000867
:1001A000000000000000000000000000F301000853
:1001B000F3010008F3010008F3010008F30100084F
:1001C000F3010008DFF80CD000F068F800480047A1
:1001D00089240008A00400200648804706480047FC
:1001E000FEE7FEE7FEE7FEE7FEE7FEE7FEE7FEE7E7
:1001F000FEE7FEE7F9230008C50100082DE9F05FDE
:100200000546002092469B46884606468146402485
:100210001BE0284641464746224600F02FF8534649
:100220005A46C01A914110D311461846224600F092
:1002300016F82D1A67EB01084F46224601200021CF
:1002400000F00DF817EB00094E41201EA4F1010447
:10025000DFDC484631462A464346BDE8F09F202A67
:1002600004DB203A00FA02F1002070479140C2F10D
:10027000200320FA03F3194390407047202A04DB3F
:10028000203A21FA02F00021704721FA02F3D0400F
:10029000C2F120029140084319467047064C074DB1
:1002A00006E0E06840F0010394E807009847103446
:1002B000AC42F6D3FFF78AFFE824000808250008BF
:1002C00000B58BB04FF4807009904FF080300590EE
:1002D0004FF07060069000200190012269460448AA
:1002E00001F050FA002800D0FEE70BB000BD00007E
:1002F0008000002010B5052000F03EF8E021012329
:10030000104A114800F01CFB00B1FEE7052000F088
:1003100033F80C4CE0210123621C0B4800F010FB69
:1003200000B1FEE7052000F027F8E0210123A21C20
:10033000054800F005FB00B1FEE7BDE810400520D0
:1003400000F01AB8000000202C00002090F83510B2
:10035000022903D08021416501207047052180F8E2
:1003600035100068016821F001010160002070472C
:1003700090F835007047000070B5044600F0E2F8D0
:100380000546601C02D004480078044400F0DAF806
:10039000401BA042FAD370BD1C0000202DE9F84F8D
:1003A00000224FF0010803254FF00F0E0B6808FAEA
:1003B00002F42340A3426ED14E68012E05D0022ED6
:1003C00003D0112E01D0122E12D186684FEA420CB2
:1003D00005FA0CF7BE43CF6807FA0CF7374387607E
:1003E0004668A6430C79C4F3001494403443446037
:1003F000C668570005FA07FC8C6826EA0C06BC4064
:100400003443C4604C68022C01D0122C13D1D408A0
:1004100000EB8404A346D4F8209054074FEAD46A32
:100420000EFA0AF629EA06090E6906FA0AF646EAFB
:100430000906CBF8206006680C7926EA0C0604F061
:100440000304BC40344304604C68E40060D5334C82
:10045000266846F480462660246822F0030604F4E9
:10046000804400942E4C3444A446D4F8084896079F
:10047000370F0EFA07F6B4432A4EB04201D10026D8
:100480001FE0294EB04201D101261AE0274EB042AA
:1004900002D1022615E03BE0254EB04201D10326F1
:1004A0000FE0244EB04201D104260AE0224EB042B1
:1004B00001D1052605E0214EB04201D1062600E01B
:1004C0000726BE402643CCF808681D4E34684F68A6
:1004D0009C43FF0300D51C433460194E361D34681D
:1004E0004F689C43BF0300D51C433460144E08364C
:1004F00034684F689C43FF0200D51C433460104EA3
:100500000C3634684F689C43BF0200D51C433460EE
:10051000521C102AFFF44AAFBDE8F88F443802405D
:100520000030014000000240000402400008024088
:10053000000C02400010024000140240001802406B
:10054000003C014001488068704700001C0000200A
:10055000704770472DE9F041026800245168C56A70
:1005600090F83E3090F83D60102B1CD0402B1AD0F4
:10057000036C002B7ED053694FF02805DB439F07A7
:1005800079D4CF43BF0576D4016C01B1946990F85A
:100590003D3000219D430B467FD0C91E516180F83C
:1005A0003C30BDE8F081946953694FF42A07DB437E
:1005B0005FEAC37C4FF02A4604D0BD42F1D0B54279
:1005C000EFD010E0CD43AD050DD4C16AB94201D1E1
:1005D000012103E0C16AB14201D10821C162BDE835
:1005E000F04101F053BD1D0716D4CD43AD0513D422
:1005F000416CC9B21161416B11B9826B002AD0D034
:10060000C96B19B9816BC96B0029CAD000684168F0
:1006100041F400614160C4E79D0706D4CD43AD05B8
:1006200003D4BDE8F04101F0A5BCE443526864077F
:100630004FEA025215D4002AB3DB1A0608D4CA4383
:10064000520505D45A0705D5BDE8F04101F036BC86
:100650005A07A6D4C9438905A3D4BDE8F04101F0E7
:10066000E3BB002A9DDB5A060CD4CA43520509D4C9
:100670005A0702E00FE023E00FE005D5BDE8F041A6
:1006800001F089BB5A078CD4C943890589D4BDE8D8
:10069000F04101F017BB94696DE7556825F480655A
:1006A0005560E243540700D50121120601D5828925
:1006B00000E0028B80F83C3092B2FFF74AFF70E70F
:1006C000DC0606D4CC43A40503D4BDE8F04101F018
:1006D00059BD212E27D0292E25D05C0655D4CC43D8
:1006E000640552D45B0752D590F83D10438D002B22
:1006F00091D01269436A1A70426A521C4262428D5A
:10070000521E4285428D002A85D12A29D7D10168FF
:100710004A6822F480624A602221016380F83D50D9
:1007200000F09CF93DE71C0623D4CC43640520D49B
:100730005B0720D590F83D10438D002BBFD0436A56
:100740001B781361426A521C4262428D521E4285DE
:10075000428D002AB3D12929B1D101684A6822F417
:1007600080624A602121016380F83D5000F077F9F2
:1007700017E75B07A3D4C9438905A0D4418D00299D
:100780009DD0416A097811610AE05B0797D4C9439B
:10079000890594D4418D002991D01169426A117064
:1007A000416A491C4162418D491E4185F9E6704705
:1007B00070B5040025D094F83D00002520B984F8D8
:1007C0003C50204600F01CF9242084F83D002068AD
:1007D000016821F0010101602068016841F40041D5
:1007E00001602068016821F40041016000F092FC82
:1007F0004D4A6168914201D84C4900E04C49884219
:1008000001D2012070BD4B492368B0FBF1F15E6855
:1008100026F03F060E435E606368934206D94FF4AC
:10082000967359434FF47A73B1FBF3F12368491C73
:100830001E6A26F03F06314319626168914210D862
:100840004900401EB0FBF1F2521CC2F30B02042A15
:1008500001D2042022E0B0FBF1F0401CC0F30B00F9
:100860001CE0A268F2B301EBC10303EB0116431EC7
:10087000B3FBF6F35B1C43F480431B0549D092B3F2
:1008800001EBC10202EB0111401EB0FBF1F0401C74
:10089000C0F30B0040F4804040F400402168CA6976
:1008A0004CF6FF739A431043C861D4E90710014323
:1008B0002068026822F0C00211430160D4E90301FC
:1008C00001432068826848F2FF339A4311438160F4
:1008D000D4E9050108432168CA6822F0FF021043E9
:1008E000C86001E00EE016E02068016841F00101F7
:1008F00001602564202084F83D00256384F83E5083
:10090000002070BD01EB4106431EB3FBF6F35B1CF8
:10091000B3E70120C2E701EB4101401EB0FBF1F05B
:10092000401CC0F30B00B7E7A086010080841E00C6
:1009300000093D0040420F007047704770470000BB
:1009400078B50024009490F83D50202D50D1294DC9
:1009500046F2A8162D68B5FBF6F505EBC50606EBC5
:10096000051500956D1E009506D00568AD69ED432F
:10097000AD070DD4009DF5E740F8304F20214173BD
:100980008473016941F0200101610473012078BD85
:1009900090F83C50012D2BD0012580F83C50056883
:1009A0002E68F60703D12E6846F001062E60056812
:1009B0002E6826F400662E60212580F83D50102513
:1009C00080F83E50046442624385428D02850A4AA3
:1009D000C262416401680A6842F480720A6080F869
:1009E0003C400068416841F4E0614160002078BD0E
:1009F000022078BD280000200000FFFF70477047EC
:100A0000144810B5026886B0002142F0020202606C
:100A10000068114C00F002000590122001900420A3
:100A200004900220CDE90210C001009069462046E2
:100A3000FFF7B4FC6015009069462046FFF7AEFC56
:100A4000002211461F2000F07BF81F2000F06AF8FA
:100A500006B010BD303802400004024070477047B5
:100A60000248816802781144816070471C000020B0
:100A70000B4810B5016841F400710160016841F450
:100A800080610160016841F480710160032000F021
:100A900077F8002000F006F800F024F8002010BDE0
:100AA000003C024070B50D4D04464FF47A71287831
:100AB000B1FBF0F00A490968B1FBF0F000F0BCFFAF
:100AC00048B9102C07D200222146501E00F038F8F9
:100AD00000206C6070BD012070BD00001C00002073
:100AE0002800002010B5032000F04AF80C480168E7
:100AF00041F4E0210160002211466FF00B0000F08C
:100B00001FF8002211466FF00A0000F019F80022C9
:100B1000BDE8104011466FF0090000F011B8000068
:100B200024ED00E0002809DB00F01F0201219140C4
:100B30004009800000F1E020C0F80011704700007B
:100B4000F0B40E4B1B680C46C3F30223C3F1070538
:100B5000042D00D90425191D072901D2002300E026
:100B6000DB1E012606FA05F1491E214099409E40F0
:100B7000761E16403143F0BC01F066BC0CED00E07F
:100B8000064900F0070208684FF6FF03184040EAE4
:100B90000220034A10430860704700000CED00E09B
:100BA0000000FA052DE9F84F044600260078F84DBC
:100BB0003746C00708D02868A16B20F0C060084302
:100BC0002860A06B00B901262078800708D5286826
:100BD000E16B20F0C05008432860E06B00B90126AB
:100BE000207840070ED52868216B20F44010084378
:100BF0002860206BB0F5801F01D010B102E0012603
:100C000000E00127207800070ED52868616B20F4EA
:100C1000400008432860606BB0F5800F01D010B130
:100C200002E0012600E0012720784FF0000A80064C
:100C30004FF0010B63D5D6484C38016841F0805124
:100C400001600068DFF84C9300F080500090D9F804
:100C5000001041F48071C9F80010FFF773FC804662
:100C600006E000BFFFF76EFCA0EB080002286FD87B
:100C7000D9F80000C005F5D5DFF81483A8F11C08E9
:100C8000D8F8000010F4407024D0B4F8401001F4FB
:100C9000407181421ED0D8F80010BF4A21F4407143
:100CA000C2F800B0C2F800A0C8F80010D8F80000E0
:100CB000C0070FD0FFF746FC814607E0FFF742FC74
:100CC000A0EB090141F288308142D0D8D8F8000069
:100CD0008007F3D5216CAE48C1F301228438032A82
:100CE00037D0016821F4F811C0F80010D8F80010CE
:100CF000B4F84020C2F30B021143C8F8001020786A
:100D0000C00604D5A54894F85810C0F8E011207822
:100D10000106A34805D50168E26C21F440011143A6
:100D200001602178490605D50168A26C21F0806137
:100D3000114301602188C90514D50168626D21F055
:100D4000006111430160616DB1F1006F09D009E0EC
:100D50001DE10268934B22F4F81219400A43026025
:100D6000C4E701272188890505D50168626C21F057
:100D70008051114301602188DFF82C92490509D583
:100D80000168226D21F0005111430160206DB0F126
:100D9000005F04D01EB92068B0F5006F7ED1834992
:100DA000C1F868A0FFF7CEFB794E80468C3E05E087
:100DB000FFF7C8FBA0EB0800022886D830680001C6
:100DC000F6D421687A48CA0701D0A26B1AB1890704
:100DD00017D5E16BA9B901680268C1F30141491C4B
:100DE000D4E9013C43EA8C1321F0004CC2F30362C6
:100DF00009EB0C4141EA02610B43217D43EA017199
:100E0000016021684A0703D5226BB2F5801F05D027
:100E1000090721D5616BB1F5800F1DD1016802680A
:100E2000C1F30141491CD4E9013C43EA8C1321F090
:100E3000004C09EB0C4194F810C0C2F3027241EA75
:100E40000C610B4343EA027101602968A26A21F038
:100E50001F01521E11432960218849051AD5216DB1
:100E6000B1F1005F16D101680268C1F30141491C6C
:100E7000D4E9013C43EA8C13D4F80CC0C2F30272EB
:100E80004FEA5C0809EB084C4CEA41610B4343EA2A
:100E9000027101602188090511D500E01FE0D4E945
:100EA000011241EA8211E268530809EB0342237CF4
:100EB00042EA03621143227D41EA027101603B492B
:100EC000C1F868B0FFF73EFB804605E0FFF73AFB4C
:100ED000A0EB0800022874D830680001F6D5EFB303
:100EE000DFF8C880C8F870A0FFF72CFB304E07462B
:100EF000843E04E0FFF726FBC01B022861D830685F
:100F0000C0438000F6D521682A484A0701D5226BE4
:100F10001AB109071DD5616BD9B90168D4E9062357
:100F2000C1F30141491C42EA831221F0004309EB5D
:100F3000034194F8243041EA03610A4302602968BE
:100F4000E26A6FF0FF0321F4F85103EB0222114330
:100F500029602188C90514D5616D00E038E0B1F140
:100F6000006F0ED10168D4E9062342EA8312236A96
:100F7000C1F303615C0809EB044343EA01610A43DE
:100F80000260C8F870B0FFF7DDFA04461CE018E014
:100F90008C38024000700040400E4742001047422B
:100FA00094380240FFFCFF0F0000FFFF00004742A3
:100FB0008438024088380240FFF7C4FA001B022838
:100FC00002D90320BDE8F88F3068C0438000F3D415
:100FD0000020F7E72DE9F0470E46050065D0DFF861
:100FE0001481D8F80000F7B200F00F00B04207D229
:100FF00088F80070D8F8000000F00F00B04254D11B
:1010000028683D4C810712D5400703D5206840F47D
:10101000E05020602878000703D5206840F4604045
:1010200020602068A96820F0F0000843206028783C
:10103000C0072DD0304968680839012812D002282D
:1010400013D0032811D00968890700292DDA2168F7
:1010500021F0030101432160FFF774FA814641F258
:10106000883A0EE009688903EFE709688901ECE72F
:10107000FFF768FAA0EB0901514502D90320BDE84A
:10108000F0872068696800F00C00B0EB810FEFD1A9
:10109000D8F80010404601F00F01B14207D907709F
:1010A000006800F00F00B04201D00120E7E7287887
:1010B000400705D52068E96820F4E0500843206027
:1010C0002878000706D52068296920F4604040EAA6
:1010D000C100206000F02EF82168084AC1F3031116
:1010E000515CC8400649086006480068FFF7DAFC12
:1010F0000020C4E7003C024008380240D024000829
:1011000028000020200000200148006870470000EF
:10111000280000200448054900680968044AC1F312
:101120008221515CC84070472800002008380240E6
:10113000E0240008224810B5006810F00C02214895
:1011400015D04110042A11D01D4C241F082A0FD09D
:101150000C2A0CD12268236802F03F025B0221D5E1
:101160002068C0F38810A0FB010120E0084610BDF4
:101170002268236802F03F025B0205D52068C0F3B5
:101180008810A0FB010104E02168C1F38811A1FBD4
:1011900000010023FFF732F82168C1F30141491C27
:1011A00049000AE02168C1F38811A1FB0001002376
:1011B000FFF724F82168C1F30271B0FBF1F010BD14
:1011C000083802400024F4002DE9F84F0546DFF806
:1011D00028B30078ABF10407C007A7F1040451D08D
:1011E000DBF800105846C1F3810101290FD00168D6
:1011F000C1F38101022902D13968490207D400688C
:10120000C0F38100032809D13868400206D5206860
:10121000800337D56868002872D033E06868B0F57D
:10122000803F10D0B0F5A02F206810D020F480307F
:101230002060206820F4802020606868A8B1FFF753
:1012400081F906460DE0206840F48030F4E740F470
:1012500080202060F7E700BFFFF774F9801B642847
:1012600078D820688003F7D50CE0FFF76BF90646C5
:1012700005E000BFFFF766F9801B6428F0D82068FE
:101280008003F7D42878DFF8749280074FF0000AC3
:1012900046D5DBF80010584611F00C0F0FD001684E
:1012A000C1F38101022902D13968490207D50068DA
:1012B000C0F38100032809D13868400206D42068B1
:1012C000800715D5E86801281AD111E0E868C0B197
:1012D0000120C9F80000FFF735F9064605E000BF18
:1012E000FFF730F9801B0228BAD820688007F7D5AD
:1012F0002068296920F0F80040EAC10020600FE072
:10130000F7E0C9F800A0FFF71DF9064605E000BFA9
:10131000FFF718F9801B02281CD820688007F7D433
:101320002878000727D5DFF8D0817548696908F16A
:101330006C0881B101210160FFF704F9064604E061
:10134000FFF700F9801B022804D8D8F800008007B6
:10135000F6D510E089E0C0F800A0FFF7F3F80646E4
:1013600005E000BFFFF7EEF8801B02287DD8D8F813
:1013700000008007F6D42878400769D55E484FF012
:10138000000838300068C0000BD45B483830016872
:1013900041F08051016000684FF0010800F080507A
:1013A0000090584E3068C00511D4306840F4807009
:1013B0003060FFF7C7F8009006E000BFFFF7C2F803
:1013C0000099401A022850D83068C005F6D54A4E18
:1013D000A868683601280FD00528306810D020F0A2
:1013E00001003060306820F004003060A868B8B1B7
:1013F000FFF7A8F800900FE0306840F00100F4E734
:1014000040F004003060F7E7FFF79CF80099411ABC
:1014100041F28830814264D830688007F4D50EE00C
:10142000FFF790F8009007E0FFF78CF80099411A59
:1014300041F28830814254D830688007F4D4B8F142
:10144000000F05D02C483830016821F08051016030
:10145000A869A8B3DBF80010C1F38101022948D0C4
:101460000228C9F860A005D000E03AE0FFF76AF86A
:10147000054639E0FFF766F8064604E0FFF762F834
:10148000801B02282DD820688001F7D4F5E90701D8
:101490000843E9681C4A490802EB0141AA6841EA8D
:1014A00082110843297C40EA0160297D40EA0170ED
:1014B00038600120C9F86000FFF744F8054606E0EF
:1014C00015E000BFFFF73EF8401B022809D820684E
:1014D0008001F7D50BE000BFFFF734F8401B02286E
:1014E00002D90320BDE8F88F20688001F4D40020E1
:1014F000F8E70120F6E70000083802400000474204
:10150000800E4742007000400000FFFF704700005F
:1015100000B587B0012269461C4800F08DF800B183
:10152000FEE7012205A9194800F064F800B1FEE7C2
:101530009DF80000164902090A7000F00F0048707B
:101540009DF8010002098A7000F00F00C870081DA4
:101550004279C2B1002242710B780E4AD35C4370CB
:101560004B78D35CC3708B78D35CC371C9780A2382
:10157000515C4172064A0548E021121D5438FFF7BC
:10158000DFF907B000BD0222E5E70000800000207F
:1015900003000020C024000810B5044600688168DC
:1015A000C9040CD5C068C00509D52046FFF7B0FFB7
:1015B0002068C16801F0800161F4C071C1602068D9
:1015C000816889040CD5C068800509D52046FFF7DD
:1015D0009DFF2068C16801F0800161F42071C16045
:1015E00003494FF4003008600120607710BD00000F
:1015F000143C014010B500680B4641680D4801409D
:10160000080CD870C1F304245C7001F03F049C7096
:10161000C1F34231197052B900F068FED8705878A1
:1016200000F064FE5870987800F060FE987000201A
:1016300010BD00003FFFFF0010B50B460168896A2E
:10164000596001680969C1F30E0199600068016879
:101650000E480140C1F305401870C1F306245C70C8
:1016600001F07F049C70402404EA1141D97052B902
:1016700000F03CFE1870587800F038FE58709878EA
:1016800000F034FE9870002010BD00007F7F7F00C6
:1016900070B5040002D0607F10B106E0012070BD7B
:1016A00000202077204600F049F80220607721686A
:1016B000CA204862216853204862204600F02AFE72
:1016C000FF25042618BB206881681B4A11408160F1
:1016D0002168886862681043D4E904231A431043E0
:1016E00088602168E068086120680169228941EA10
:1016F000024101612068C16821F08001C160206859
:101700008068800607D4204600F06EF918B1206882
:1017100045626677C2E72068016C21F4802101648C
:101720002068016CA26911430164206845620120B0
:101730006077002070BD0000BFFF8FFF10B5A4B020
:1017400004201790002001241D90199417A8FFF77A
:101750003BFD00B1FEE720200090C00010906846DD
:10176000FFF720FA00B1FEE7002201212920FFF750
:10177000E7F92920FFF7D6F90148046024B010BD2D
:101780003C0E4742F8B503465A480C464FF4FA411E
:101790000068B0FBF1F0491148430090187F012820
:1017A00063D001261E770220587718680025002A8A
:1017B00080684FEA40605AD0002800DBE570A078CE
:1017C0002278E77840EA02406278E169120242EA50
:1017D0000742104394F8202040EA02600843616900
:1017E000A269084361681F681143CA227A621F68B0
:1017F00053227A62626AFF27B2F5807F1A684FF03F
:10180000030C94684ED024F4007494601A68D46871
:1018100004F0800464F42074D4601A68009CB4F16D
:10182000010ECDF800E05ED3D468A407F6D51062AF
:10183000186881641868816841F4007181601868D3
:10184000816841F4005181602B48016841F4003106
:10185000016029480830016841F4003101601868CE
:1018600047625E771D770020F8BD0220F8BD002892
:1018700000DBE570207800F042FD0204607800F0A3
:101880003EFD42EA0022A07800F039FD0243E078F4
:1018900042EA004294F8200000F031FD42EA006084
:1018A000E1699BE724F4807494601A68D46804F0BA
:1018B000800464F4C074D4601A68009CB4F1010E12
:1018C000CDF800E00FD3D468E407F6D0D0611868F3
:1018D00041641868816841F480718160186881688A
:1018E00041F48051AFE7576283F81DC01D77032094
:1018F000F8BD000028000020003C01402DE9F04721
:101900000446007F0D46012827D04FF0010A84F8D5
:101910001CA0022060772068002680684FEA4060A3
:10192000F2B1002800DBEE70A878297840EA014780
:101930006878E978000240EA014007432168CA203C
:101940004862216853204862204600F0E3FC4FF0D3
:10195000FF084FF00409A0BB16E00220BDE8F087A5
:10196000002800DBEE70287800F0C9FC02046878DB
:1019700000F0C5FC42EA0022A87800F0C0FC024357
:10198000E87842EA0047D9E7164807402068076030
:101990002068816821F480218160D5E90301084332
:1019A00021688A68104388602068C16821F080013E
:1019B000C1602068806880060BD4204600F014F8CF
:1019C00038B12168C1F8248084F81D902677012061
:1019D000C4E72168C1F8248084F81DA02677002080
:1019E000BCE700007F7F7F0070B504460068C168D7
:1019F00021F0A001C160FEF7A5FD05464FF47A76FF
:101A000007E000BFFEF79EFD401BB04201D9032056
:101A100070BD2068C0688006F4D5002070BD4FF00E
:101A2000E0210428086903D020F004000861704711
:101A300040F00400FAE7704710B5401EB0F1807F17
:101A400001D3012010BD4FF0E02460610F21601729
:101A500000F0FAFC0020A06107202061002010BDEA
:101A600010B5FFF7E8FF10BD0148FEF773BD000099
:101A70002C00002010B5806B90F83D20436B0021B6
:101A800003B1D963836B03B1D96303681C6824F481
:101A900080641C604185436B03B11965836B03B19E
:101AA000196503681C6824F001041C6090F83D402F
:101AB0002023602C0BD0282434EA02020FD080F8B7
:101AC0003D3080F83E1000BFFEF771FE10BD80F87B
:101AD0003D3080F83E100164FEF73AFD10BD02680B
:101AE000136843F0010313600268136843F48063D2
:101AF0001360016380F83D40E6E7000070B50446DE
:101B000090F83D0094F83E10102906D1222804D107
:101B100021680A6822F400620A60282131EA000282
:101B20004FF000054FF0200626D0216849680905CE
:101B300003D4602801D084F83D60256384F83E50CA
:101B400020684168090537D5416821F4006141608A
:101B5000606B90F835203C49012A11D00165606B1B
:101B6000FEF7F4FB38B32068016821F00101016041
:101B700084F83D60606B1CE0256384F83D10DFE76E
:101B8000A06B0165A06BFEF7E1FBA0B12068416985
:101B9000C943490605D40069616A0870606A401C3F
:101BA00060622068016821F00101016084F83D60F5
:101BB000A06B016D884710E094F83D10602910D0AB
:101BC0004169C943490605D40069616A0870606AC1
:101BD000401C60622046FEF7EAFD206CC1071CD164
:101BE00015E084F83D6025644169C943490605D480
:101BF0000069616A0870606A401C60622068016860
:101C000021F0010101602046FEF7A2FCE5E7810713
:101C100003D4410701D4000704D52068416821F4AA
:101C2000E061416094F83D00216C49070BD52828FC
:101C300009D10648E062256384F83D6084F83E508F
:101C40002046FEF779FE70BD751A00080000FFFF00
:101C500038B5184D0020296841F400112960296821
:101C6000164C01F400110091134921601449C4E994
:101C700001104FF48041C4E904104921E160E061A2
:101C8000802020622046FEF793FD00B1FEE7286821
:101C900040F400102860286800F4001000902068CC
:101CA000016841F0010101602068416841F4007160
:101CB000416038BD40380240005400402C000020F4
:101CC000A086010010B5C26A438D0168042B06D0BE
:101CD000438D032B08D0438D022B1DD012E04A68A0
:101CE00022F480624A600CE04B6823F480634B600E
:101CF000042A06D0022A04D001680A6822F480620D
:101D00000A6001680969426A1170416A491C4162AE
:101D1000418D491E418510BD012A30D0102A2ED098
:101D2000042A30D0022A2ED00A6842F400720A60D7
:101D300001680969426A1170416A491C4162428D19
:101D4000521E4285026812690A70416A491C41624A
:101D5000418D491E418501684A6822F440724A60FB
:101D6000202180F83D1090F83E200021402A80F884
:101D70003E100CD012210163FEF7DFFD10BD0A6892
:101D800022F48062D3E70A6842F48062CFE70163FD
:101D9000FEF734FE10BD10B590F83D10222914D185
:101DA000418D032912D901680969426A1170416A9B
:101DB000491C4162418D491E4185418D032904D151
:101DC0000068416821F48061416010BDC26A022A46
:101DD000FBD0012901D00029F7D101680A6822F45B
:101DE00080620A6001684A6822F4E0624A60016821
:101DF0000969426A1170416A491C4162418D491E5C
:101E00004185202180F83D1090F83E200021402A95
:101E100080F83E1004D012210163FEF78EFD10BD44
:101E20000163FEF7EBFD10BD10B5C26A90F83D10DE
:101E3000212907D090F83E1040290FD1BDE810406D
:101E400000F06AB9418D51B1416A026809781161A7
:101E5000416A491C4162418D491E418510BD2023C4
:101E60000021082A13D0202A11D012F5803F0ED06D
:101E70000268546824F4E06454601122026380F81C
:101E80003E1080F83D3000BFFEF758FD10BD0268DF
:101E9000546824F4E06454600268146844F40074E4
:101EA0001460016380F83D3090F83E2080F83E10C9
:101EB000402AE9D1FEF7A3FD10BD000010B590F84F
:101EC0003D1090F83E30C26A048DB4B1212903D090
:101ED000402B11D122290FD1418DE1B390F83E1052
:101EE000402942D0416A026809781161416A491C5F
:101EF0004162418D491E418510BD2129E8D1202331
:101F00000021082A13D0202A11D012F5803F0ED0CC
:101F10000268546824F4E06454601122026380F87B
:101F20003E1080F83D3000BFFEF708FD10BD02688E
:101F3000546824F4E06454600268146844F4007443
:101F40001460016380F83D3090F83E2080F83E1028
:101F5000402AE9D100E002E0FEF751FD10BD006823
:101F6000416821F48061416010BDBDE8104000F07F
:101F7000D3B8000078B590F83E50C26A036B90F871
:101F80003D6000240168222E7AD1066D0EB9402DE5
:101F900076D0056D1DB90569B5F5404F09D0458D61
:101FA00005B3468D384D012E0ED0438D022B3AD00D
:101FB0005DE04A698A6900920A6842F480720A60A8
:101FC000016D491C016578BDAA4213D10A6822F44B
:101FD00080620A6001684A68120503D50A6822F423
:101FE000806216E04A698A6900920A6842F40072C7
:101FF0000A6039E0082A10D0202A0ED0122B0AD00D
:10200000042A03D0022A01D0102AE7D10A6842F438
:1020100080620A6024E0012AE0D00A6822F480622B
:102020000A600168DEE7042A21D0022A1FD0102AA4
:102030001DD00B6823F480630B6001680B6843F4C8
:1020400000630B6001684B681B0509D5AA4212D0DA
:10205000012A10D0082A0ED0102A0CD0202A0AD02B
:1020600001684A6989690091046578BD08E00B68D8
:1020700043F48063E5E74A6842F480524A60EFE740
:10208000486988690090F0E70000FFFF90F83E1073
:10209000402910D00169B1F5804F19D0016DA9B365
:1020A000016D012910D1416C5FF0F10201F4407122
:1020B00042EAD11106E0016D0029416C05D0C9B298
:1020C00041F0010100680161704701F0FE01F9E78C
:1020D00090F83D102129416C09D0C9B241F00101AD
:1020E00002681161416B29B1C96B49B902E001F085
:1020F000FE01F5E7816B0029E6D0C96B0029E3D02A
:102100000068416841F4006141607047FFE7416C3D
:10211000F02201F44071CBE7016DC1B1016D0129DD
:1021200023D0016D022911D190F83D10222923D02E
:1021300090F83D10212909D1416A0268097811619E
:10214000416A491C4162418D491E41857047C16CFD
:102150000129816C02D0C1F3072108E00268C9B2ED
:102160001161016D891C01657047816CC9B20268FB
:102170001161016D491CF6E70068016841F4807146
:1021800001607047F8B590F83D600446006841680A
:1021900021F4E061416020680025416900910168F7
:1021A00041F0010101602068016821F48061016053
:1021B00020684168090520D5474F222E48D02A2E95
:1021C00046D0616B096849686185618D19B1216CE0
:1021D00041F004012164416821F400614160606BB9
:1021E000FEF7C6F8012808D0606B0765606BFEF744
:1021F000ADF810B1606B016D8847608D08B3206841
:102200004169C943490708D40069616A0870606A76
:10221000401C6062608D401E608520684169C94332
:10222000490608D40069616A0870606A401C6062EF
:10223000608D401E6085608D18B1206C40F00400F8
:102240002064206C00B32046BDE8F840FFF756BC80
:10225000A16B096849686185618D19B1216C41F0F4
:1022600004012164416821F400614160A06BFEF724
:102270007FF80128C1D0A06B0765A06BFEF766F858
:102280000028BAD0A06BB6E72A2E06D125632820F5
:1022900084F83D002046FEF7E1FB94F83D10202035
:1022A00028290DD0216B222901D0222E07D12563A8
:1022B00084F83D0084F83E502046FEF7CFFBF8BD81
:1022C0000649E162256384F83D0084F83E502046CB
:1022D000FEF732FBF8BD0000751A00080000FFFF92
:1022E0000148FFF759B9000080000020010901EB07
:1022F000810100F00F0000EB4100C0B270470021E7
:1023000002E00A38C0B2491C0A28FAD2090740EA9A
:102310001160704770B504460068C168490614D45E
:102320004FF0FF31C160FEF70DF905464FF47A76A4
:1023300007E000BFFEF706F9401BB04201D90320B9
:1023400070BD2068C0684006F4D5002070BD000054
:102350000B4810B509490160402141607F2181602F
:10236000FF21C16000214FF48012C0E90412816195
:10237000FFF78EF9002800D0FEE710BD00280040CE
:102380008000002010B5FEF76BFBBDE81040FFF7A2
:1023900067BB10B592B0012000904FF4A0200190CF
:1023A00002204105CDE906010F21CDE90D100421E0
:1023B00008913C21CDE9091000204FF4A051CDE94E
:1023C0000F01119005246846FEF7FEFE00B1FEE7FE
:1023D00021460DA8FEF7FEFD00B1FEE7FEF794FED4
:1023E0004FF47A71B0FBF1F0FFF726FB0420FFF702
:1023F00016FB12B010BD00000548016841F47001E1
:10240000016003494FF000608039086070470000A8
:1024100088ED00E000B585B040208DF80300112064
:102420008DF800008DF8010000208DF802000122D7
:1024300069460448FFF762FA002800D0FEE705B0BD
:1024400000BD0000800000200907090E002804DB01
:1024500000F1E02080F80014704700F00F0000F158
:10246000E02080F8141D704702E008C8121F08C160
:10247000002AFAD170477047002001E001C1121F05
:10248000002AFBD170470000FEF7F2FAFFF781FF48
:10249000FFF75EFFFFF7DCFBFFF7BCFFFDF710FF68
:1024A000FDF728FFE0210A23034A0448FEF748FA13
:1024B00000B1FEE7FEE70000110000202C00002024
:1024C0003F065B4F666D7D077F6F777C395E797164
:1024D00000000000000000000102030406070809D4
:1024E000000000000102030408250008000000208D
:1024F0002C00000068240008342500082C0000206F
:1025000074040000782400082181EF00000000001E
:102510000002000400060008000071207704000695
:1025200039087900010000001000000000000000E0
:042530000024F4008F
:04000005080001C529
:00000001FF
