:020000040800F2
:1000000098040020D9010008E1010008E30100087C
:10001000E5010008E7010008E90100080000000010
:10002000000000000000000000000000EB010008DC
:10003000ED01000800000000EF010008271C000887
:10004000F3010008F3010008F3010008F3010008C0
:10005000F3010008F3010008F3010008F3010008B0
:10006000F3010008F3010008F3010008F3010008A0
:10007000F3010008F3010008F3010008F301000890
:10008000F3010008F3010008F3010008F301000880
:10009000F3010008F3010008F3010008F301000870
:1000A000F3010008F3010008F3010008F301000860
:1000B000F3010008F3010008F30100082913000808
:1000C000F3010008F3010008F3010008F301000840
:1000D000F3010008F3010008F3010008F301000830
:1000E000F3010008091C0008F3010008F3010008EF
:1000F000F3010008F3010008F3010008F301000810
:10010000F3010008F3010008F3010008F3010008FF
:10011000F3010008F3010008F3010008F3010008EF
:10012000F3010008F3010008F3010008F3010008DF
:10013000F30100080000000000000000F3010008C7
:10014000F3010008F3010008F3010008F3010008BF
:10015000F3010008F3010008F3010008F3010008AF
:10016000F3010008F3010008F3010008F30100089F
:10017000F3010008F3010008F3010008000000008B
:1001800000000000F3010008000000000000000073
:10019000F30100080000000000000000F301000867
:1001A000000000000000000000000000F301000853
:1001B000F3010008F3010008F3010008F30100084F
:1001C000F3010008DFF80CD000F068F800480047A1
:1001D000511D000898040020064880470648004743
:1001E000FEE7FEE7FEE7FEE7FEE7FEE7FEE7FEE7E7
:1001F000FEE7FEE7991C0008C50100082DE9F05F45
:100200000546002092469B46884606468146402485
:100210001BE0284641464746224600F02FF8534649
:100220005A46C01A914110D311461846224600F092
:1002300016F82D1A67EB01084F46224601200021CF
:1002400000F00DF817EB00094E41201EA4F1010447
:10025000DFDC484631462A464346BDE8F09F202A67
:1002600004DB203A00FA02F1002070479140C2F10D
:10027000200320FA03F3194390407047202A04DB3F
:10028000203A21FA02F00021704721FA02F3D0400F
:10029000C2F120029140084319467047064C074DB1
:1002A00006E0E06840F0010394E807009847103446
:1002B000AC42F6D3FFF78AFFEC1D00080C1E0008C5
:1002C00010B501F0F7FC0823BDE81040024A0421F4
:1002D000024800F0B5BB000008000020200000200C
:1002E00090F83510022903D0802141650120704724
:1002F000052180F835100068016821F001010160D6
:100300000020704790F835007047000070B5044633
:1003100000F0E2F80546601C02D00448007804446E
:1003200000F0DAF8401BA042FAD370BD10000020A4
:100330002DE9F84F00224FF0010803254FF00F0E72
:100340000B6808FA02F42340A3426ED14E68012ED6
:1003500005D0022E03D0112E01D0122E12D18668A4
:100360004FEA420C05FA0CF7BE43CF6807FA0CF7C8
:10037000374387604668A6430C79C4F30014944061
:1003800034434460C668570005FA07FC8C6826EAC7
:100390000C06BC403443C4604C68022C01D0122CC3
:1003A00013D1D40800EB8404A346D4F8209054075A
:1003B0004FEAD46A0EFA0AF629EA06090E6906FA25
:1003C0000AF646EA0906CBF8206006680C7926EAA8
:1003D0000C0604F00304BC40344304604C68E400A1
:1003E00060D5334C266846F480462660246822F0A7
:1003F000030604F4804400942E4C3444A446D4F8FC
:1004000008489607370F0EFA07F6B4432A4EB04253
:1004100001D100261FE0294EB04201D101261AE089
:10042000274EB04202D1022615E03BE0254EB042F5
:1004300001D103260FE0244EB04201D104260AE088
:10044000224EB04201D1052605E0214EB04201D135
:10045000062600E00726BE402643CCF808681D4E5D
:1004600034684F689C43FF0300D51C433460194E29
:10047000361D34684F689C43BF0300D51C4334606D
:10048000144E083634684F689C43FF0200D51C4365
:100490003460104E0C3634684F689C43BF0200D560
:1004A0001C433460521C102AFFF44AAFBDE8F88F99
:1004B0004438024000300140000002400004024085
:1004C00000080240000C02400010024000140240EC
:1004D00000180240003C014001488068704700005D
:1004E00010000020704770472DE9F0410268002499
:1004F0005168C56A90F83E3090F83D60102B1CD0D2
:10050000402B1AD0036C002B7ED053694FF0280586
:10051000DB439F0779D4CF43BF0576D4016C01B18B
:10052000946990F83D3000219D430B467FD0C91E51
:10053000516180F83C30BDE8F081946953694FF413
:100540002A07DB435FEAC37C4FF02A4604D0BD4252
:10055000F1D0B542EFD010E0CD43AD050DD4C16A66
:10056000B94201D1012103E0C16AB14201D10821A0
:10057000C162BDE8F04101F0E9B91D0716D4CD43D1
:10058000AD0513D4416CC9B21161416B11B9826BD5
:10059000002AD0D0C96B19B9816BC96B0029CAD0A8
:1005A0000068416841F400614160C4E79D0706D4DA
:1005B000CD43AD0503D4BDE8F04101F03BB9E443C0
:1005C000526864074FEA025215D4002AB3DB1A06B8
:1005D00008D4CA43520505D45A0705D5BDE8F041F1
:1005E00001F0CCB85A07A6D4C9438905A3D4BDE805
:1005F000F04101F079B8002A9DDB5A060CD4CA43B9
:10060000520509D45A0702E00FE023E00FE005D5B8
:10061000BDE8F04101F01FB85A078CD4C9438905E1
:1006200089D4BDE8F04100F0ADBF94696DE755682D
:1006300025F480655560E243540700D50121120678
:1006400001D5828900E0028B80F83C3092B2FFF73E
:100650004AFF70E7DC0606D4CC43A40503D4BDE80A
:10066000F04101F0EFB9212E27D0292E25D05C06CC
:1006700055D4CC43640552D45B0752D590F83D1055
:10068000438D002B91D01269436A1A70426A521C42
:100690004262428D521E4285428D002A85D12A290E
:1006A000D7D101684A6822F480624A60222101633E
:1006B00080F83D5000F052FA3DE71C0623D4CC43AD
:1006C000640520D45B0720D590F83D10438D002BA6
:1006D000BFD0436A1B781361426A521C4262428D4A
:1006E000521E4285428D002AB3D12929B1D1016819
:1006F0004A6822F480624A602121016380F83D50FB
:1007000000F02DFA17E75B07A3D4C9438905A0D4ED
:10071000418D00299DD0416A097811610AE05B078B
:1007200097D4C943890594D4418D002991D011698A
:10073000426A1170416A491C4162418D491E4185DE
:10074000F9E6704770B5040025D094F83D00002507
:1007500020B984F83C50204600F0D2F9242084F8D7
:100760003D002068016821F00101016020680168F6
:1007700041F4004101602068016821F400410160FA
:1007800000F030FB4D4A6168914201D84C4900E0CD
:100790004C49884201D2012070BD4B492368B0FB0F
:1007A000F1F15E6826F03F060E435E606368934297
:1007B00006D94FF4967359434FF47A73B1FBF3F1B2
:1007C0002368491C1E6A26F03F063143196261689E
:1007D000914210D84900401EB0FBF1F2521CC2F306
:1007E0000B02042A01D2042022E0B0FBF1F0401CED
:1007F000C0F30B001CE0A268F2B301EBC10303EBF2
:100800000116431EB3FBF6F35B1C43F480431B0548
:1008100049D092B301EBC10202EB0111401EB0FBC3
:10082000F1F0401CC0F30B0040F4804040F4004065
:100830002168CA694CF6FF739A431043C861D4E932
:10084000071001432068026822F0C00211430160D2
:10085000D4E9030101432068826848F2FF339A43D8
:1008600011438160D4E9050108432168CA6822F078
:10087000FF021043C86001E00EE016E02068016846
:1008800041F0010101602564202084F83D002563CA
:1008900084F83E50002070BD01EB4106431EB3FBBF
:1008A000F6F35B1CB3E70120C2E701EB4101401EF8
:1008B000B0FBF1F0401CC0F30B00B7E7A0860100CD
:1008C00080841E0000093D0040420F002DE9FF4FCB
:1008D00081B089460446FFF7FFFD054694F83D00C8
:1008E0004FF0010820287DD11923012250492046CC
:1008F000009501F055F9002874D194F83C000128C6
:1009000070D0012084F83C0020680168C90703D139
:10091000016841F0010101602068016821F4006173
:100920000160242084F83D00002626644148E062EE
:100930004FF0011B20272068016841F4807101609D
:100940000095002259462046049B01F029F950B138
:1009500020680068C00502D54FF4007020640320B1
:1009600005B0BDE8F08F216809F0FE000861FFF7CF
:10097000B3FD2168054648694969C0F34000C1F3E9
:1009800080214FF0A00A0FE0FFF7A6FD411B04985D
:10099000814200D808B984F83DA0216848694969B6
:1009A000C0F34000C1F3802194F83D20A02A02D07A
:1009B00008B90029E8D084F83D7020684169C9432E
:1009C000890716D4016841F400710160206841690B
:1009D00080691923012216492046009501F0E0F8AC
:1009E000B8B900E021E084F83D7084F83C60002054
:1009F000B6E7016841F40071016021686FF480601E
:100A00004861192301220A492046009501F0C8F8DF
:100A100008B10120A4E7039808F1010880458AD3B2
:100A200084F83D7084F83C60F3E7022098E700000A
:100A3000020010000000FFFF704770477047000081
:100A400078B50024009490F83D50202D50D1294DC8
:100A500046F2A8162D68B5FBF6F505EBC50606EBC4
:100A6000051500956D1E009506D00568AD69ED432E
:100A7000AD070DD4009DF5E740F8304F20214173BC
:100A80008473016941F0200101610473012078BD84
:100A900090F83C50012D2BD0012580F83C50056882
:100AA0002E68F60703D12E6846F001062E60056811
:100AB0002E6826F400662E60212580F83D50102512
:100AC00080F83E50046442624385428D02850A4AA2
:100AD000C262416401680A6842F480720A6080F868
:100AE0003C400068416841F4E0614160002078BD0D
:100AF000022078BD1C0000200000FFFF70477047F7
:100B0000144810B5026886B0002142F0020202606B
:100B10000068114C00F002000590122001900420A2
:100B200004900220CDE90210C001009069462046E1
:100B3000FFF7FEFB6015009069462046FFF7F8FBC3
:100B4000002211461F2000F07BF81F2000F06AF8F9
:100B500006B010BD303802400004024070477047B4
:100B600002488168027811448160704710000020BB
:100B70000B4810B5016841F400710160016841F44F
:100B800080610160016841F480710160032000F020
:100B900077F8002000F006F800F024F8002010BDDF
:100BA000003C024070B50D4D04464FF47A71287830
:100BB000B1FBF0F00A490968B1FBF0F000F09BFBD3
:100BC00048B9102C07D200222146501E00F038F8F8
:100BD00000206C6070BD012070BD0000100000207E
:100BE0001C00002010B5032000F04AF80C480168F2
:100BF00041F4E0210160002211466FF00B0000F08B
:100C00001FF8002211466FF00A0000F019F80022C8
:100C1000BDE8104011466FF0090000F011B8000067
:100C200024ED00E0002809DB00F01F0201219140C3
:100C30004009800000F1E020C0F80011704700007A
:100C4000F0B40E4B1B680C46C3F30223C3F1070537
:100C5000042D00D90425191D072901D2002300E025
:100C6000DB1E012606FA05F1491E214099409E40EF
:100C7000761E16403143F0BC01F04AB80CED00E09E
:100C8000064900F0070208684FF6FF03184040EAE3
:100C90000220034A10430860704700000CED00E09A
:100CA0000000FA052DE9F0470E46050065D0DFF893
:100CB0001481D8F80000F7B200F00F00B04207D25C
:100CC00088F80070D8F8000000F00F00B04254D14E
:100CD00028683D4C810712D5400703D5206840F4B1
:100CE000E05020602878000703D5206840F4604079
:100CF00020602068A96820F0F00008432060287870
:100D0000C0072DD0304968680839012812D0022860
:100D100013D0032811D00968890700292DDA21682A
:100D200021F0030101432160FFF7D6FB814641F228
:100D3000883A0EE009688903EFE709688901ECE762
:100D4000FFF7CAFBA0EB0901514502D90320BDE81A
:100D5000F0872068696800F00C00B0EB810FEFD1DC
:100D6000D8F80010404601F00F01B14207D90770D2
:100D7000006800F00F00B04201D00120E7E72878BA
:100D8000400705D52068E96820F4E050084320605A
:100D90002878000706D52068296920F4604040EAD9
:100DA000C100206000F02EF82168084AC1F3031149
:100DB000515CC8400649086006480068FFF7F2FE2B
:100DC0000020C4E7003C024008380240D21D000861
:100DD0001C0000201400002001480068704700003B
:100DE0001C0000200448054900680968044AC1F352
:100DF0008221515CC84070471C0000200838024026
:100E0000E21D0008224810B5006810F00C022148CD
:100E100015D04110042A11D01D4C241F082A0FD0D0
:100E20000C2A0CD12268236802F03F025B0221D514
:100E30002068C0F38810A0FB010120E0084610BD27
:100E40002268236802F03F025B0205D52068C0F3E8
:100E50008810A0FB010104E02168C1F38811A1FB07
:100E600000010023FFF7CAF92168C1F30141491CC1
:100E700049000AE02168C1F38811A1FB00010023A9
:100E8000FFF7BCF92168C1F30271B0FBF1F010BDAE
:100E9000083802400024F4002DE9F84F0546DFF839
:100EA00028B30078ABF10407C007A7F1040451D0C0
:100EB000DBF800105846C1F3810101290FD0016809
:100EC000C1F38101022902D13968490207D40068BF
:100ED000C0F38100032809D13868400206D5206894
:100EE000800337D56868002872D033E06868B0F5B1
:100EF000803F10D0B0F5A02F206810D020F48030B3
:100F00002060206820F4802020606868A8B1FFF786
:100F1000E3FA06460DE0206840F48030F4E740F440
:100F200080202060F7E700BFFFF7D6FA801B642817
:100F300078D820688003F7D50CE0FFF7CDFA064695
:100F400005E000BFFFF7C8FA801B6428F0D82068CE
:100F50008003F7D42878DFF8749280074FF0000AF6
:100F600046D5DBF80010584611F00C0F0FD0016881
:100F7000C1F38101022902D13968490207D500680D
:100F8000C0F38100032809D13868400206D42068E4
:100F9000800715D5E86801281AD111E0E868C0B1CA
:100FA0000120C9F80000FFF797FA064605E000BFE8
:100FB000FFF792FA801B0228BAD820688007F7D57D
:100FC0002068296920F0F80040EAC10020600FE0A5
:100FD000F7E0C9F800A0FFF77FFA064605E000BF7A
:100FE000FFF77AFA801B02281CD820688007F7D404
:100FF0002878000727D5DFF8D0817548696908F19E
:101000006C0881B101210160FFF766FA064604E031
:10101000FFF762FA801B022804D8D8F80000800786
:10102000F6D510E089E0C0F800A0FFF755FA0646B3
:1010300005E000BFFFF750FA801B02287DD8D8F8E2
:1010400000008007F6D42878400769D55E484FF045
:10105000000838300068C0000BD45B4838300168A5
:1010600041F08051016000684FF0010800F08050AD
:101070000090584E3068C00511D4306840F480703C
:101080003060FFF729FA009006E000BFFFF724FA6E
:101090000099401A022850D83068C005F6D54A4E4B
:1010A000A868683601280FD00528306810D020F0D5
:1010B00001003060306820F004003060A868B8B1EA
:1010C000FFF70AFA00900FE0306840F00100F4E703
:1010D00040F004003060F7E7FFF7FEF90099411A8D
:1010E00041F28830814264D830688007F4D50EE040
:1010F000FFF7F2F9009007E0FFF7EEF90099411AC7
:1011000041F28830814254D830688007F4D4B8F175
:10111000000F05D02C483830016821F08051016063
:10112000A869A8B3DBF80010C1F38101022948D0F7
:101130000228C9F860A005D000E03AE0FFF7CCF93A
:10114000054639E0FFF7C8F9064604E0FFF7C4F9A1
:10115000801B02282DD820688001F7D4F5E907010B
:101160000843E9681C4A490802EB0141AA6841EAC0
:1011700082110843297C40EA0160297D40EA017020
:1011800038600120C9F86000FFF7A6F9054606E0BF
:1011900015E000BFFFF7A0F9401B022809D820681E
:1011A0008001F7D50BE000BFFFF796F9401B02283E
:1011B00002D90320BDE8F88F20688001F4D4002014
:1011C000F8E70120F6E70000083802400000474237
:1011D000800E4742007000400000FFFF7047FFF79D
:1011E0006FB8000010B5044600688168C9040CD5CA
:1011F000C068C00509D52046FFF7F1FF2068C16827
:1012000001F0800161F4C071C160206881688904C7
:101210000CD5C068800509D52046FFF7DFFF2068A0
:10122000C16801F0800161F42071C16003494FF48D
:10123000003008600120607710BD0000143C0140C0
:1012400010B500680B4641680D480140080CD87085
:10125000C1F304245C7001F03F049C70C1F342317F
:10126000197052B900F0D6FCD870587800F0D2FC52
:101270005870987800F0CEFC9870002010BD0000E7
:101280003FFFFF0010B50B460168896A596001688D
:101290000969C1F30E019960006801680E480140B8
:1012A000C1F305401870C1F306245C7001F07F049F
:1012B0009C70402404EA1141D97052B900F0AAFC94
:1012C0001870587800F0A6FC5870987800F0A2FCCE
:1012D0009870002010BD00007F7F7F004FF0E0215C
:1012E0000428086903D020F004000861704740F02A
:1012F0000400FAE7704710B5401EB0F1807F01D3BB
:10130000012010BD4FF0E02460610F21601700F054
:10131000FFFC0020A06107202061002010BD10B557
:10132000FFF7E8FF10BD00000148FFF7DDB800003F
:101330002000002010B5806B90F83D20436B002109
:1013400003B1D963836B03B1D96303681C6824F4C8
:1013500080641C604185436B03B11965836B03B1E5
:10136000196503681C6824F001041C6090F83D4076
:101370002023602C0BD0282434EA02020FD080F8FE
:101380003D3080F83E1000BFFFF7DBF910BD80F85C
:101390003D3080F83E100164FFF7A4F810BD0268EC
:1013A000136843F0010313600268136843F4806319
:1013B0001360016380F83D40E6E7000070B5044625
:1013C00090F83D0094F83E10102906D1222804D14F
:1013D00021680A6822F400620A60282131EA0002CA
:1013E0004FF000054FF0200626D021684968090516
:1013F00003D4602801D084F83D60256384F83E5012
:1014000020684168090537D5416821F400614160D1
:10141000606B90F835203C49012A11D00165606B62
:10142000FEF75EFF38B32068016821F0010101601A
:1014300084F83D60606B1CE0256384F83D10DFE7B5
:10144000A06B0165A06BFEF74BFFA0B1206841695E
:10145000C943490605D40069616A0870606A401C86
:1014600060622068016821F00101016084F83D603C
:10147000A06B016D884710E094F83D10602910D0F2
:101480004169C943490605D40069616A0870606A08
:10149000401C60622046FFF754F9206CC1071CD144
:1014A00015E084F83D6025644169C943490605D4C7
:1014B0000069616A0870606A401C606220680168A7
:1014C00021F0010101602046FFF70CF8E5E78107F4
:1014D00003D4410701D4000704D52068416821F4F2
:1014E000E061416094F83D00216C49070BD5282844
:1014F00009D10648E062256384F83D6084F83E50D7
:101500002046FFF799FA70BD351300080000FFFF71
:1015100038B5184D0020296841F400112960296868
:10152000164C01F400110091134921601449C4E9DB
:1015300001104FF48041C4E904104921E160E061E9
:10154000802020622046FFF7FDF800B1FEE7286802
:1015500040F400102860286800F400100090206813
:10156000016841F0010101602068416841F40071A7
:10157000416038BD40380240005400402000002047
:10158000A086010010B5C26A438D0168042B06D005
:10159000438D032B08D0438D022B1DD012E04A68E7
:1015A00022F480624A600CE04B6823F480634B6055
:1015B000042A06D0022A04D001680A6822F4806254
:1015C0000A6001680969426A1170416A491C4162F6
:1015D000418D491E418510BD012A30D0102A2ED0E0
:1015E000042A30D0022A2ED00A6842F400720A601F
:1015F00001680969426A1170416A491C4162428D61
:10160000521E4285026812690A70416A491C416291
:10161000418D491E418501684A6822F440724A6042
:10162000202180F83D1090F83E200021402A80F8CB
:101630003E100CD012210163FFF7FFF910BD0A68BC
:1016400022F48062D3E70A6842F48062CFE7016344
:10165000FFF754FA10BD10B590F83D10222914D1AF
:10166000418D032912D901680969426A1170416AE2
:10167000491C4162418D491E4185418D032904D198
:101680000068416821F48061416010BDC26A022A8D
:10169000FBD0012901D00029F7D101680A6822F4A2
:1016A00080620A6001684A6822F4E0624A60016868
:1016B0000969426A1170416A491C4162418D491EA3
:1016C0004185202180F83D1090F83E200021402ADD
:1016D00080F83E1004D012210163FFF7AEF910BD6F
:1016E0000163FFF70BFA10BD10B5C26A90F83D1008
:1016F000212907D090F83E1040290FD1BDE81040B5
:1017000000F06AB9418D51B1416A026809781161EE
:10171000416A491C4162418D491E418510BD20230B
:101720000021082A13D0202A11D012F5803F0ED0B4
:101730000268546824F4E06454601122026380F863
:101740003E1080F83D3000BFFFF778F910BD026809
:10175000546824F4E06454600268146844F400742B
:101760001460016380F83D3090F83E2080F83E1010
:10177000402AE9D1FFF7C3F910BD000010B590F879
:101780003D1090F83E30C26A048DB4B1212903D0D7
:10179000402B11D122290FD1418DE1B390F83E1099
:1017A000402942D0416A026809781161416A491CA6
:1017B0004162418D491E418510BD2129E8D1202378
:1017C0000021082A13D0202A11D012F5803F0ED014
:1017D0000268546824F4E06454601122026380F8C3
:1017E0003E1080F83D3000BFFFF728F910BD0268B9
:1017F000546824F4E06454600268146844F400748B
:101800001460016380F83D3090F83E2080F83E106F
:10181000402AE9D100E002E0FFF771F910BD00684D
:10182000416821F48061416010BDBDE8104000F0C6
:10183000D3B8000078B590F83E50C26A036B90F8B8
:101840003D6000240168222E7AD1066D0EB9402D2C
:1018500076D0056D1DB90569B5F5404F09D0458DA8
:1018600005B3468D384D012E0ED0438D022B3AD054
:101870005DE04A698A6900920A6842F480720A60EF
:10188000016D491C016578BDAA4213D10A6822F492
:1018900080620A6001684A68120503D50A6822F46A
:1018A000806216E04A698A6900920A6842F400720E
:1018B0000A6039E0082A10D0202A0ED0122B0AD054
:1018C000042A03D0022A01D0102AE7D10A6842F480
:1018D00080620A6024E0012AE0D00A6822F4806273
:1018E0000A600168DEE7042A21D0022A1FD0102AEC
:1018F0001DD00B6823F480630B6001680B6843F410
:1019000000630B6001684B681B0509D5AA4212D021
:10191000012A10D0082A0ED0102A0CD0202A0AD072
:1019200001684A6989690091046578BD08E00B681F
:1019300043F48063E5E74A6842F480524A60EFE787
:10194000486988690090F0E70000FFFF90F83E10BA
:10195000402910D00169B1F5804F19D0016DA9B3AC
:10196000016D012910D1416C5FF0F10201F4407169
:1019700042EAD11106E0016D0029416C05D0C9B2DF
:1019800041F0010100680161704701F0FE01F9E7D3
:1019900090F83D102129416C09D0C9B241F00101F4
:1019A00002681161416B29B1C96B49B902E001F0CC
:1019B000FE01F5E7816B0029E6D0C96B0029E3D071
:1019C0000068416841F4006141607047FFE7416C85
:1019D000F02201F44071CBE7016DC1B1016D012925
:1019E00023D0016D022911D190F83D10222923D076
:1019F00090F83D10212909D1416A026809781161E6
:101A0000416A491C4162418D491E41857047C16C44
:101A10000129816C02D0C1F3072108E00268C9B234
:101A20001161016D891C01657047816CC9B2026842
:101A30001161016D491CF6E70068016841F480718D
:101A400001607047F8B590F83D6004460068416851
:101A500021F4E0614160206800254169009101683E
:101A600041F0010101602068016821F4806101609A
:101A700020684168090520D5474F222E48D02A2EDC
:101A800046D0616B096849686185618D19B1216C27
:101A900041F004012164416821F400614160606B00
:101AA000FEF730FC012808D0606B0765606BFEF71D
:101AB00017FC10B1606B016D8847608D08B320681A
:101AC0004169C943490708D40069616A0870606ABE
:101AD000401C6062608D401E608520684169C9437A
:101AE000490608D40069616A0870606A401C606237
:101AF000608D401E6085608D18B1206C40F0040040
:101B00002064206C00B32046BDE8F840FFF756BCC7
:101B1000A16B096849686185618D19B1216C41F03B
:101B200004012164416821F400614160A06BFEF76B
:101B3000E9FB0128C1D0A06B0765A06BFEF7D0FBC5
:101B40000028BAD0A06BB6E72A2E06D1256328203C
:101B500084F83D002046FFF701F894F83D1020205E
:101B600028290DD0216B222901D0222E07D12563EF
:101B700084F83D0084F83E502046FEF7EFFFF8BDA4
:101B80000649E162256384F83D0084F83E50204612
:101B9000FEF752FFF8BD0000351300080000FFFFFC
:101BA0002DE9F0471E4690460D460446C1F307470F
:101BB000DDF8209008E0701C06D0FEF78DFCA0EB4D
:101BC0000900B0420FD876B12068012F18D0806983
:101BD00025EA00000004000C14D000214145EAD0A1
:101BE0000020BDE8F087002044F8300F2021617309
:101BF000A073216941F02001216120730120F0E7E9
:101C00004069E5E70121E9E70148FFF7EBBA000089
:101C100074000020010901EB810100F00F0000EBCE
:101C20004100C0B2704710B5FEF79AFFBDE8104002
:101C3000FFF775BB10B592B0012000904FF4A020C3
:101C4000019002204105CDE906010F21CDE90D10DB
:101C5000042108913C21CDE9091000204FF4A05146
:101C6000CDE90F01119005246846FFF715F900B181
:101C7000FEE721460DA8FFF715F800B1FEE7FFF7D4
:101C8000ABF84FF47A71B0FBF1F0FFF734FB0420AE
:101C9000FFF724FB12B010BD0548016841F4700144
:101CA000016003494FF00060803908607047000010
:101CB00088ED00E000B587B0012269461148FFF7C2
:101CC000E1FA00B1FEE7012205A90E48FFF7B8FAD4
:101CD00000B1FEE79DF800200B4800EB121102F066
:101CE0000F020B7809494B70825CCA709DF8012085
:101CF00000EB121302F00F021B784B71805CC8716D
:101D000007B000BD74000020C81D000808000020B6
:101D10000907090E002804DB00F1E02080F8001418
:101D2000704700F00F0000F1E02080F8141D7047AC
:101D300002E008C8121F08C1002AFAD17047704794
:101D4000002001E001C1121F002AFBD170470000F2
:101D5000FEF70EFFFFF7DCFBFFF76CFF3220FEF70C
:101D6000D5FA174C0123E02116486268FEF768FE99
:101D700000B1FEE76068401C60600A20FEF7C6FA0A
:101D800064230322E0210F48FEF7A0FD00B1FEE727
:101D90006068401C60600A20FEF7B8FA62680123A0
:101DA000501C6060E0210748FEF74AFE00B1FEE7E4
:101DB0006068401C60600A20FEF7A8FAFEE7000099
:101DC00000000020200000203F065B4F666D7D076D
:101DD0007F6F0000000000000000010203040607FE
:101DE0000809000000000102030400000C1E0008A6
:101DF0000000002020000000301D00082C1E0008FC
:101E00002000002078040000401D00082181EF0020
:101E1000000000200400020006000800010000008D
:0C1E200010000000000000000024F4008E
:04000005080001C529
:00000001FF
